{
  "contractName": "Auction",
  "abi": [
    {
      "inputs": [],
      "name": "itemCount",
      "outputs": [
        {
          "internalType": "uint256",
          "name": "",
          "type": "uint256"
        }
      ],
      "stateMutability": "view",
      "type": "function"
    },
    {
      "inputs": [
        {
          "internalType": "uint256",
          "name": "",
          "type": "uint256"
        }
      ],
      "name": "items",
      "outputs": [
        {
          "internalType": "uint256",
          "name": "id",
          "type": "uint256"
        },
        {
          "internalType": "string",
          "name": "description",
          "type": "string"
        },
        {
          "internalType": "uint256",
          "name": "startPrice",
          "type": "uint256"
        },
        {
          "internalType": "address payable",
          "name": "seller",
          "type": "address"
        },
        {
          "internalType": "address payable",
          "name": "highestBidder",
          "type": "address"
        },
        {
          "internalType": "uint256",
          "name": "highestBid",
          "type": "uint256"
        },
        {
          "internalType": "uint256",
          "name": "endTime",
          "type": "uint256"
        },
        {
          "internalType": "enum Auction.AuctionState",
          "name": "state",
          "type": "uint8"
        }
      ],
      "stateMutability": "view",
      "type": "function"
    },
    {
      "inputs": [
        {
          "internalType": "string",
          "name": "description",
          "type": "string"
        },
        {
          "internalType": "uint256",
          "name": "startPrice",
          "type": "uint256"
        },
        {
          "internalType": "uint256",
          "name": "duration",
          "type": "uint256"
        }
      ],
      "name": "createAuction",
      "outputs": [],
      "stateMutability": "nonpayable",
      "type": "function"
    },
    {
      "inputs": [
        {
          "internalType": "uint256",
          "name": "itemId",
          "type": "uint256"
        }
      ],
      "name": "bid",
      "outputs": [],
      "stateMutability": "payable",
      "type": "function"
    },
    {
      "inputs": [
        {
          "internalType": "uint256",
          "name": "itemId",
          "type": "uint256"
        }
      ],
      "name": "endAuction",
      "outputs": [],
      "stateMutability": "nonpayable",
      "type": "function"
    },
    {
      "inputs": [
        {
          "internalType": "uint256",
          "name": "itemId",
          "type": "uint256"
        }
      ],
      "name": "shipItem",
      "outputs": [],
      "stateMutability": "nonpayable",
      "type": "function"
    },
    {
      "inputs": [
        {
          "internalType": "uint256",
          "name": "itemId",
          "type": "uint256"
        }
      ],
      "name": "receiveItem",
      "outputs": [],
      "stateMutability": "nonpayable",
      "type": "function"
    }
  ],
  "bytecode": "0x608060405234801561001057600080fd5b5061164a806100206000396000f3fe6080604052600436106100705760003560e01c8063a26be9991161004e578063a26be999146100e5578063b9a2de3a1461010e578063bfb231d214610137578063f61c899a1461017b57610070565b80632dbddb4114610075578063454a2ab31461009e5780636bfb0d01146100ba575b600080fd5b34801561008157600080fd5b5061009c60048036038101906100979190610d66565b6101a4565b005b6100b860048036038101906100b39190610dd5565b610362565b005b3480156100c657600080fd5b506100cf6105f6565b6040516100dc9190610e11565b60405180910390f35b3480156100f157600080fd5b5061010c60048036038101906101079190610dd5565b6105fc565b005b34801561011a57600080fd5b5061013560048036038101906101309190610dd5565b6107bd565b005b34801561014357600080fd5b5061015e60048036038101906101599190610dd5565b6108c4565b604051610172989796959493929190610f6c565b60405180910390f35b34801561018757600080fd5b506101a2600480360381019061019d9190610dd5565b6109e1565b005b6000808154809291906101b690611020565b919050555060405180610100016040528060005481526020018481526020018381526020013373ffffffffffffffffffffffffffffffffffffffff168152602001600073ffffffffffffffffffffffffffffffffffffffff1681526020016000815260200182426102279190611068565b8152602001600060038111156102405761023f610ef5565b5b815250600160008054815260200190815260200160002060008201518160000155602082015181600101908051906020019061027d929190610b33565b506040820151816002015560608201518160030160006101000a81548173ffffffffffffffffffffffffffffffffffffffff021916908373ffffffffffffffffffffffffffffffffffffffff16021790555060808201518160040160006101000a81548173ffffffffffffffffffffffffffffffffffffffff021916908373ffffffffffffffffffffffffffffffffffffffff16021790555060a0820151816005015560c0820151816006015560e08201518160070160006101000a81548160ff0219169083600381111561035557610354610ef5565b5b0217905550905050505050565b6000600160008381526020019081526020016000209050806006015442106103bf576040517f08c379a00000000000000000000000000000000000000000000000000000000081526004016103b69061110a565b60405180910390fd5b80600501543411610405576040517f08c379a00000000000000000000000000000000000000000000000000000000081526004016103fc90611176565b60405180910390fd5b806002015434101561044c576040517f08c379a000000000000000000000000000000000000000000000000000000000815260040161044390611208565b60405180910390fd5b8060030160009054906101000a900473ffffffffffffffffffffffffffffffffffffffff1673ffffffffffffffffffffffffffffffffffffffff163373ffffffffffffffffffffffffffffffffffffffff16036104de576040517f08c379a00000000000000000000000000000000000000000000000000000000081526004016104d590611274565b60405180910390fd5b600073ffffffffffffffffffffffffffffffffffffffff168160040160009054906101000a900473ffffffffffffffffffffffffffffffffffffffff1673ffffffffffffffffffffffffffffffffffffffff16146105a6578060040160009054906101000a900473ffffffffffffffffffffffffffffffffffffffff1673ffffffffffffffffffffffffffffffffffffffff166108fc82600501549081150290604051600060405180830381858888f193505050501580156105a4573d6000803e3d6000fd5b505b338160040160006101000a81548173ffffffffffffffffffffffffffffffffffffffff021916908373ffffffffffffffffffffffffffffffffffffffff1602179055503481600501819055505050565b60005481565b60006001600083815260200190815260200160002090508060040160009054906101000a900473ffffffffffffffffffffffffffffffffffffffff1673ffffffffffffffffffffffffffffffffffffffff163373ffffffffffffffffffffffffffffffffffffffff16146106a5576040517f08c379a000000000000000000000000000000000000000000000000000000000815260040161069c90611306565b60405180910390fd5b600260038111156106b9576106b8610ef5565b5b8160070160009054906101000a900460ff1660038111156106dd576106dc610ef5565b5b1461071d576040517f08c379a000000000000000000000000000000000000000000000000000000000815260040161071490611398565b60405180910390fd5b60038160070160006101000a81548160ff0219169083600381111561074557610744610ef5565b5b02179055508060030160009054906101000a900473ffffffffffffffffffffffffffffffffffffffff1673ffffffffffffffffffffffffffffffffffffffff166108fc82600501549081150290604051600060405180830381858888f193505050501580156107b8573d6000803e3d6000fd5b505050565b6000600160008381526020019081526020016000209050806006015442101561081b576040517f08c379a000000000000000000000000000000000000000000000000000000000815260040161081290611404565b60405180910390fd5b6000600381111561082f5761082e610ef5565b5b8160070160009054906101000a900460ff16600381111561085357610852610ef5565b5b14610893576040517f08c379a000000000000000000000000000000000000000000000000000000000815260040161088a90611470565b60405180910390fd5b60018160070160006101000a81548160ff021916908360038111156108bb576108ba610ef5565b5b02179055505050565b60016020528060005260406000206000915090508060000154908060010180546108ed906114bf565b80601f0160208091040260200160405190810160405280929190818152602001828054610919906114bf565b80156109665780601f1061093b57610100808354040283529160200191610966565b820191906000526020600020905b81548152906001019060200180831161094957829003601f168201915b5050505050908060020154908060030160009054906101000a900473ffffffffffffffffffffffffffffffffffffffff16908060040160009054906101000a900473ffffffffffffffffffffffffffffffffffffffff16908060050154908060060154908060070160009054906101000a900460ff16905088565b60006001600083815260200190815260200160002090508060030160009054906101000a900473ffffffffffffffffffffffffffffffffffffffff1673ffffffffffffffffffffffffffffffffffffffff163373ffffffffffffffffffffffffffffffffffffffff1614610a8a576040517f08c379a0000000000000000000000000000000000000000000000000000000008152600401610a8190611562565b60405180910390fd5b60016003811115610a9e57610a9d610ef5565b5b8160070160009054906101000a900460ff166003811115610ac257610ac1610ef5565b5b14610b02576040517f08c379a0000000000000000000000000000000000000000000000000000000008152600401610af9906115f4565b60405180910390fd5b60028160070160006101000a81548160ff02191690836003811115610b2a57610b29610ef5565b5b02179055505050565b828054610b3f906114bf565b90600052602060002090601f016020900481019282610b615760008555610ba8565b82601f10610b7a57805160ff1916838001178555610ba8565b82800160010185558215610ba8579182015b82811115610ba7578251825591602001919060010190610b8c565b5b509050610bb59190610bb9565b5090565b5b80821115610bd2576000816000905550600101610bba565b5090565b6000604051905090565b600080fd5b600080fd5b600080fd5b600080fd5b6000601f19601f8301169050919050565b7f4e487b7100000000000000000000000000000000000000000000000000000000600052604160045260246000fd5b610c3d82610bf4565b810181811067ffffffffffffffff82111715610c5c57610c5b610c05565b5b80604052505050565b6000610c6f610bd6565b9050610c7b8282610c34565b919050565b600067ffffffffffffffff821115610c9b57610c9a610c05565b5b610ca482610bf4565b9050602081019050919050565b82818337600083830152505050565b6000610cd3610cce84610c80565b610c65565b905082815260208101848484011115610cef57610cee610bef565b5b610cfa848285610cb1565b509392505050565b600082601f830112610d1757610d16610bea565b5b8135610d27848260208601610cc0565b91505092915050565b6000819050919050565b610d4381610d30565b8114610d4e57600080fd5b50565b600081359050610d6081610d3a565b92915050565b600080600060608486031215610d7f57610d7e610be0565b5b600084013567ffffffffffffffff811115610d9d57610d9c610be5565b5b610da986828701610d02565b9350506020610dba86828701610d51565b9250506040610dcb86828701610d51565b9150509250925092565b600060208284031215610deb57610dea610be0565b5b6000610df984828501610d51565b91505092915050565b610e0b81610d30565b82525050565b6000602082019050610e266000830184610e02565b92915050565b600081519050919050565b600082825260208201905092915050565b60005b83811015610e66578082015181840152602081019050610e4b565b83811115610e75576000848401525b50505050565b6000610e8682610e2c565b610e908185610e37565b9350610ea0818560208601610e48565b610ea981610bf4565b840191505092915050565b600073ffffffffffffffffffffffffffffffffffffffff82169050919050565b6000610edf82610eb4565b9050919050565b610eef81610ed4565b82525050565b7f4e487b7100000000000000000000000000000000000000000000000000000000600052602160045260246000fd5b60048110610f3557610f34610ef5565b5b50565b6000819050610f4682610f24565b919050565b6000610f5682610f38565b9050919050565b610f6681610f4b565b82525050565b600061010082019050610f82600083018b610e02565b8181036020830152610f94818a610e7b565b9050610fa36040830189610e02565b610fb06060830188610ee6565b610fbd6080830187610ee6565b610fca60a0830186610e02565b610fd760c0830185610e02565b610fe460e0830184610f5d565b9998505050505050505050565b7f4e487b7100000000000000000000000000000000000000000000000000000000600052601160045260246000fd5b600061102b82610d30565b91507fffffffffffffffffffffffffffffffffffffffffffffffffffffffffffffffff820361105d5761105c610ff1565b5b600182019050919050565b600061107382610d30565b915061107e83610d30565b9250827fffffffffffffffffffffffffffffffffffffffffffffffffffffffffffffffff038211156110b3576110b2610ff1565b5b828201905092915050565b7f41756374696f6e20616c726561647920656e6465642e00000000000000000000600082015250565b60006110f4601683610e37565b91506110ff826110be565b602082019050919050565b60006020820190508181036000830152611123816110e7565b9050919050565b7f546865726520616c7265616479206973206120686967686572206269642e0000600082015250565b6000611160601e83610e37565b915061116b8261112a565b602082019050919050565b6000602082019050818103600083015261118f81611153565b9050919050565b7f426964206d757374206265206174206c6561737420746865207374617274207060008201527f726963652e000000000000000000000000000000000000000000000000000000602082015250565b60006111f2602583610e37565b91506111fd82611196565b604082019050919050565b60006020820190508181036000830152611221816111e5565b9050919050565b7f53656c6c65722063616e2774206269642e000000000000000000000000000000600082015250565b600061125e601183610e37565b915061126982611228565b602082019050919050565b6000602082019050818103600083015261128d81611251565b9050919050565b7f4f6e6c79207468652062757965722063616e2063616c6c20746869732066756e60008201527f6374696f6e2e0000000000000000000000000000000000000000000000000000602082015250565b60006112f0602683610e37565b91506112fb82611294565b604082019050919050565b6000602082019050818103600083015261131f816112e3565b9050919050565b7f5468652073746174652073686f756c64206265204177616974696e675265636560008201527f697665642e000000000000000000000000000000000000000000000000000000602082015250565b6000611382602583610e37565b915061138d82611326565b604082019050919050565b600060208201905081810360008301526113b181611375565b9050919050565b7f41756374696f6e20686173206e6f7420656e646564207965742e000000000000600082015250565b60006113ee601a83610e37565b91506113f9826113b8565b602082019050919050565b6000602082019050818103600083015261141d816113e1565b9050919050565b7f41756374696f6e20616c726561647920636f6d706c657465642e000000000000600082015250565b600061145a601a83610e37565b915061146582611424565b602082019050919050565b600060208201905081810360008301526114898161144d565b9050919050565b7f4e487b7100000000000000000000000000000000000000000000000000000000600052602260045260246000fd5b600060028204905060018216806114d757607f821691505b6020821081036114ea576114e9611490565b5b50919050565b7f4f6e6c79207468652073656c6c65722063616e2063616c6c207468697320667560008201527f6e6374696f6e2e00000000000000000000000000000000000000000000000000602082015250565b600061154c602783610e37565b9150611557826114f0565b604082019050919050565b6000602082019050818103600083015261157b8161153f565b9050919050565b7f5468652073746174652073686f756c64206265204177616974696e6744656c6960008201527f766572792e000000000000000000000000000000000000000000000000000000602082015250565b60006115de602583610e37565b91506115e982611582565b604082019050919050565b6000602082019050818103600083015261160d816115d1565b905091905056fea264697066735822122015fcb3fac401da9b97f23fb3aa3f3444e78449ae46ba8b1f17c550b19e50d28964736f6c634300080e0033",
  "immutableReferences": {},
  "source": "// SPDX-License-Identifier: MIT\npragma solidity >=0.4.22 <0.9.0;\n\ncontract Auction {\n    struct Item {\n        uint id;\n        string description;\n        uint startPrice;\n        address payable seller;\n        address payable highestBidder;\n        uint highestBid;\n        uint endTime;\n        AuctionState state;\n    }\n\n    enum AuctionState {\n        InProgress,\n        AwaitingDelivery,\n        AwaitingReceived,\n        Completed\n    }\n\n    uint public itemCount;\n    mapping(uint => Item) public items;\n\n    function createAuction(\n        string memory description,\n        uint startPrice,\n        uint duration\n    ) public {\n        itemCount++;\n        items[itemCount] = Item({\n            id: itemCount,\n            description: description,\n            startPrice: startPrice,\n            seller: payable(msg.sender),\n            highestBidder: payable(address(0)),\n            highestBid: 0,\n            endTime: block.timestamp + duration,\n            state: AuctionState.InProgress\n        });\n    }\n\n    function bid(uint itemId) public payable {\n        Item storage item = items[itemId];\n        require(block.timestamp < item.endTime, \"Auction already ended.\");\n        require(msg.value > item.highestBid, \"There already is a higher bid.\");\n        require(\n            msg.value >= item.startPrice,\n            \"Bid must be at least the start price.\"\n        );\n        require(payable(msg.sender) != item.seller, \"Seller can't bid.\");\n\n        // return the pre bid\n        if (item.highestBidder != address(0)) {\n            item.highestBidder.transfer(item.highestBid);\n        }\n\n        // update the new bid\n        item.highestBidder = payable(msg.sender);\n        item.highestBid = msg.value;\n    }\n\n    function endAuction(uint itemId) public {\n        Item storage item = items[itemId];\n        require(block.timestamp >= item.endTime, \"Auction has not ended yet.\");\n        require(\n            item.state == AuctionState.InProgress,\n            \"Auction already completed.\"\n        );\n\n        item.state = AuctionState.AwaitingDelivery;\n    }\n\n    function shipItem(uint itemId) public {\n        Item storage item = items[itemId];\n        require(\n            msg.sender == item.seller,\n            \"Only the seller can call this function.\"\n        );\n        require(\n            item.state == AuctionState.AwaitingDelivery,\n            \"The state should be AwaitingDelivery.\"\n        );\n        item.state = AuctionState.AwaitingReceived;\n    }\n\n    function receiveItem(uint itemId) public {\n        Item storage item = items[itemId];\n        require(\n            msg.sender == item.highestBidder,\n            \"Only the buyer can call this function.\"\n        );\n        require(\n            item.state == AuctionState.AwaitingReceived,\n            \"The state should be AwaitingReceived.\"\n        );\n\n        item.state = AuctionState.Completed;\n\n        payable(item.seller).transfer(item.highestBid);\n    }\n}\n",
  "sourcePath": "/home/gentle/projects/homeworks/blockchain/auction_system/server/contracts/Auction.sol",
  "compiler": {
    "name": "solc",
    "version": "0.8.14+commit.80d49f37.Emscripten.clang"
  },
  "schemaVersion": "3.4.16",
  "updatedAt": "2024-06-12T02:35:27.562Z",
  "devdoc": {
    "kind": "dev",
    "methods": {},
    "version": 1
  },
  "userdoc": {
    "kind": "user",
    "methods": {},
    "version": 1
  }
}