{
  "contractName": "Auction",
  "abi": [
    {
      "anonymous": false,
      "inputs": [
        {
          "indexed": false,
          "internalType": "uint256",
          "name": "id",
          "type": "uint256"
        },
        {
          "indexed": false,
          "internalType": "string",
          "name": "description",
          "type": "string"
        },
        {
          "indexed": false,
          "internalType": "uint256",
          "name": "startPrice",
          "type": "uint256"
        },
        {
          "indexed": false,
          "internalType": "uint256",
          "name": "endTime",
          "type": "uint256"
        }
      ],
      "name": "AuctionCreated",
      "type": "event"
    },
    {
      "anonymous": false,
      "inputs": [
        {
          "indexed": false,
          "internalType": "uint256",
          "name": "id",
          "type": "uint256"
        },
        {
          "indexed": false,
          "internalType": "address",
          "name": "winner",
          "type": "address"
        },
        {
          "indexed": false,
          "internalType": "uint256",
          "name": "amount",
          "type": "uint256"
        }
      ],
      "name": "AuctionEnded",
      "type": "event"
    },
    {
      "anonymous": false,
      "inputs": [
        {
          "indexed": false,
          "internalType": "uint256",
          "name": "id",
          "type": "uint256"
        },
        {
          "indexed": false,
          "internalType": "address",
          "name": "bidder",
          "type": "address"
        },
        {
          "indexed": false,
          "internalType": "uint256",
          "name": "amount",
          "type": "uint256"
        }
      ],
      "name": "HighestBidIncreased",
      "type": "event"
    },
    {
      "anonymous": false,
      "inputs": [
        {
          "indexed": false,
          "internalType": "uint256",
          "name": "id",
          "type": "uint256"
        }
      ],
      "name": "ItemReceived",
      "type": "event"
    },
    {
      "anonymous": false,
      "inputs": [
        {
          "indexed": false,
          "internalType": "uint256",
          "name": "id",
          "type": "uint256"
        }
      ],
      "name": "ItemShipped",
      "type": "event"
    },
    {
      "inputs": [],
      "name": "itemCount",
      "outputs": [
        {
          "internalType": "uint256",
          "name": "",
          "type": "uint256"
        }
      ],
      "stateMutability": "view",
      "type": "function",
      "constant": true
    },
    {
      "inputs": [
        {
          "internalType": "uint256",
          "name": "",
          "type": "uint256"
        }
      ],
      "name": "items",
      "outputs": [
        {
          "internalType": "uint256",
          "name": "id",
          "type": "uint256"
        },
        {
          "internalType": "string",
          "name": "description",
          "type": "string"
        },
        {
          "internalType": "uint256",
          "name": "startPrice",
          "type": "uint256"
        },
        {
          "internalType": "address payable",
          "name": "seller",
          "type": "address"
        },
        {
          "internalType": "address payable",
          "name": "highestBidder",
          "type": "address"
        },
        {
          "internalType": "uint256",
          "name": "highestBid",
          "type": "uint256"
        },
        {
          "internalType": "uint256",
          "name": "endTime",
          "type": "uint256"
        },
        {
          "internalType": "enum Auction.AuctionState",
          "name": "state",
          "type": "uint8"
        }
      ],
      "stateMutability": "view",
      "type": "function",
      "constant": true
    },
    {
      "inputs": [
        {
          "internalType": "address",
          "name": "",
          "type": "address"
        }
      ],
      "name": "pendingReturns",
      "outputs": [
        {
          "internalType": "uint256",
          "name": "",
          "type": "uint256"
        }
      ],
      "stateMutability": "view",
      "type": "function",
      "constant": true
    },
    {
      "inputs": [
        {
          "internalType": "string",
          "name": "description",
          "type": "string"
        },
        {
          "internalType": "uint256",
          "name": "startPrice",
          "type": "uint256"
        },
        {
          "internalType": "uint256",
          "name": "duration",
          "type": "uint256"
        }
      ],
      "name": "createAuction",
      "outputs": [],
      "stateMutability": "nonpayable",
      "type": "function"
    },
    {
      "inputs": [
        {
          "internalType": "uint256",
          "name": "itemId",
          "type": "uint256"
        }
      ],
      "name": "bid",
      "outputs": [],
      "stateMutability": "payable",
      "type": "function",
      "payable": true
    },
    {
      "inputs": [],
      "name": "withdraw",
      "outputs": [],
      "stateMutability": "nonpayable",
      "type": "function"
    },
    {
      "inputs": [
        {
          "internalType": "uint256",
          "name": "itemId",
          "type": "uint256"
        }
      ],
      "name": "endAuction",
      "outputs": [],
      "stateMutability": "nonpayable",
      "type": "function"
    },
    {
      "inputs": [
        {
          "internalType": "uint256",
          "name": "itemId",
          "type": "uint256"
        }
      ],
      "name": "shipItem",
      "outputs": [],
      "stateMutability": "nonpayable",
      "type": "function"
    },
    {
      "inputs": [
        {
          "internalType": "uint256",
          "name": "itemId",
          "type": "uint256"
        }
      ],
      "name": "receiveItem",
      "outputs": [],
      "stateMutability": "nonpayable",
      "type": "function"
    }
  ],
  "bytecode": "0x608060405234801561001057600080fd5b50611a8b806100206000396000f3fe6080604052600436106100865760003560e01c80636bfb0d01116100595780636bfb0d0114610124578063a26be9991461014f578063b9a2de3a14610178578063bfb231d2146101a1578063f61c899a146101e557610086565b806326b387bb1461008b5780632dbddb41146100c85780633ccfd60b146100f1578063454a2ab314610108575b600080fd5b34801561009757600080fd5b506100b260048036038101906100ad9190610ef6565b61020e565b6040516100bf9190610f3c565b60405180910390f35b3480156100d457600080fd5b506100ef60048036038101906100ea91906110c9565b610226565b005b3480156100fd57600080fd5b5061010661043a565b005b610122600480360381019061011d9190611138565b610587565b005b34801561013057600080fd5b506101396107d3565b6040516101469190610f3c565b60405180910390f35b34801561015b57600080fd5b5061017660048036038101906101719190611138565b6107d9565b005b34801561018457600080fd5b5061019f600480360381019061019a9190611138565b6109d1565b005b3480156101ad57600080fd5b506101c860048036038101906101c39190611138565b610b3b565b6040516101dc989796959493929190611285565b60405180910390f35b3480156101f157600080fd5b5061020c60048036038101906102079190611138565b610c58565b005b60026020528060005260406000206000915090505481565b60008081548092919061023890611339565b919050555060405180610100016040528060005481526020018481526020018381526020013373ffffffffffffffffffffffffffffffffffffffff168152602001600073ffffffffffffffffffffffffffffffffffffffff1681526020016000815260200182426102a99190611381565b8152602001600060038111156102c2576102c161120e565b5b81525060016000805481526020019081526020016000206000820151816000015560208201518160010190805190602001906102ff929190610de1565b506040820151816002015560608201518160030160006101000a81548173ffffffffffffffffffffffffffffffffffffffff021916908373ffffffffffffffffffffffffffffffffffffffff16021790555060808201518160040160006101000a81548173ffffffffffffffffffffffffffffffffffffffff021916908373ffffffffffffffffffffffffffffffffffffffff16021790555060a0820151816005015560c0820151816006015560e08201518160070160006101000a81548160ff021916908360038111156103d7576103d661120e565b5b02179055509050507f5bf34ed94988e5dcdc7d1faaa54eb1d3b55f45d5f11457e235afb21a8ebbe73c600054848460016000805481526020019081526020016000206006015460405161042d94939291906113d7565b60405180910390a1505050565b6000600260003373ffffffffffffffffffffffffffffffffffffffff1673ffffffffffffffffffffffffffffffffffffffff168152602001908152602001600020549050600081116104c1576040517f08c379a00000000000000000000000000000000000000000000000000000000081526004016104b89061146f565b60405180910390fd5b6000600260003373ffffffffffffffffffffffffffffffffffffffff1673ffffffffffffffffffffffffffffffffffffffff168152602001908152602001600020819055503373ffffffffffffffffffffffffffffffffffffffff166108fc829081150290604051600060405180830381858888f193505050506105845780600260003373ffffffffffffffffffffffffffffffffffffffff1673ffffffffffffffffffffffffffffffffffffffff168152602001908152602001600020819055505b50565b6000600160008381526020019081526020016000209050806006015442106105e4576040517f08c379a00000000000000000000000000000000000000000000000000000000081526004016105db906114db565b60405180910390fd5b8060050154341161062a576040517f08c379a000000000000000000000000000000000000000000000000000000000815260040161062190611547565b60405180910390fd5b8060020154341015610671576040517f08c379a0000000000000000000000000000000000000000000000000000000008152600401610668906115d9565b60405180910390fd5b600073ffffffffffffffffffffffffffffffffffffffff168160040160009054906101000a900473ffffffffffffffffffffffffffffffffffffffff1673ffffffffffffffffffffffffffffffffffffffff1614610748578060050154600260008360040160009054906101000a900473ffffffffffffffffffffffffffffffffffffffff1673ffffffffffffffffffffffffffffffffffffffff1673ffffffffffffffffffffffffffffffffffffffff16815260200190815260200160002060008282546107409190611381565b925050819055505b338160040160006101000a81548173ffffffffffffffffffffffffffffffffffffffff021916908373ffffffffffffffffffffffffffffffffffffffff1602179055503481600501819055507fda0a18da71d8ebd145966339a728fc0d8ccc07c22870d561890d823c515dda6b8233346040516107c793929190611608565b60405180910390a15050565b60005481565b60006001600083815260200190815260200160002090508060040160009054906101000a900473ffffffffffffffffffffffffffffffffffffffff1673ffffffffffffffffffffffffffffffffffffffff163373ffffffffffffffffffffffffffffffffffffffff1614610882576040517f08c379a0000000000000000000000000000000000000000000000000000000008152600401610879906116b1565b60405180910390fd5b600260038111156108965761089561120e565b5b8160070160009054906101000a900460ff1660038111156108ba576108b961120e565b5b146108fa576040517f08c379a00000000000000000000000000000000000000000000000000000000081526004016108f190611743565b60405180910390fd5b60038160070160006101000a81548160ff021916908360038111156109225761092161120e565b5b02179055508060030160009054906101000a900473ffffffffffffffffffffffffffffffffffffffff1673ffffffffffffffffffffffffffffffffffffffff166108fc82600501549081150290604051600060405180830381858888f19350505050158015610995573d6000803e3d6000fd5b507f01e74d1f4f418e68629246efc4a29d98199e9c9b9c3653bdbfee74d2ad4ac6a3826040516109c59190610f3c565b60405180910390a15050565b60006001600083815260200190815260200160002090508060060154421015610a2f576040517f08c379a0000000000000000000000000000000000000000000000000000000008152600401610a26906117af565b60405180910390fd5b60006003811115610a4357610a4261120e565b5b8160070160009054906101000a900460ff166003811115610a6757610a6661120e565b5b14610aa7576040517f08c379a0000000000000000000000000000000000000000000000000000000008152600401610a9e9061181b565b60405180910390fd5b60018160070160006101000a81548160ff02191690836003811115610acf57610ace61120e565b5b02179055507fd2aa34a4fdbbc6dff6a3e56f46e0f3ae2a31d7785ff3487aa5c95c642acea501828260040160009054906101000a900473ffffffffffffffffffffffffffffffffffffffff168360050154604051610b2f9392919061189a565b60405180910390a15050565b6001602052806000526040600020600091509050806000015490806001018054610b6490611900565b80601f0160208091040260200160405190810160405280929190818152602001828054610b9090611900565b8015610bdd5780601f10610bb257610100808354040283529160200191610bdd565b820191906000526020600020905b815481529060010190602001808311610bc057829003601f168201915b5050505050908060020154908060030160009054906101000a900473ffffffffffffffffffffffffffffffffffffffff16908060040160009054906101000a900473ffffffffffffffffffffffffffffffffffffffff16908060050154908060060154908060070160009054906101000a900460ff16905088565b60006001600083815260200190815260200160002090508060030160009054906101000a900473ffffffffffffffffffffffffffffffffffffffff1673ffffffffffffffffffffffffffffffffffffffff163373ffffffffffffffffffffffffffffffffffffffff1614610d01576040517f08c379a0000000000000000000000000000000000000000000000000000000008152600401610cf8906119a3565b60405180910390fd5b60016003811115610d1557610d1461120e565b5b8160070160009054906101000a900460ff166003811115610d3957610d3861120e565b5b14610d79576040517f08c379a0000000000000000000000000000000000000000000000000000000008152600401610d7090611a35565b60405180910390fd5b60028160070160006101000a81548160ff02191690836003811115610da157610da061120e565b5b02179055507fa05c5fef40b703b14a2e3737559bc365ed9169787e68b584f4966911a890d4e282604051610dd59190610f3c565b60405180910390a15050565b828054610ded90611900565b90600052602060002090601f016020900481019282610e0f5760008555610e56565b82601f10610e2857805160ff1916838001178555610e56565b82800160010185558215610e56579182015b82811115610e55578251825591602001919060010190610e3a565b5b509050610e639190610e67565b5090565b5b80821115610e80576000816000905550600101610e68565b5090565b6000604051905090565b600080fd5b600080fd5b600073ffffffffffffffffffffffffffffffffffffffff82169050919050565b6000610ec382610e98565b9050919050565b610ed381610eb8565b8114610ede57600080fd5b50565b600081359050610ef081610eca565b92915050565b600060208284031215610f0c57610f0b610e8e565b5b6000610f1a84828501610ee1565b91505092915050565b6000819050919050565b610f3681610f23565b82525050565b6000602082019050610f516000830184610f2d565b92915050565b600080fd5b600080fd5b6000601f19601f8301169050919050565b7f4e487b7100000000000000000000000000000000000000000000000000000000600052604160045260246000fd5b610faa82610f61565b810181811067ffffffffffffffff82111715610fc957610fc8610f72565b5b80604052505050565b6000610fdc610e84565b9050610fe88282610fa1565b919050565b600067ffffffffffffffff82111561100857611007610f72565b5b61101182610f61565b9050602081019050919050565b82818337600083830152505050565b600061104061103b84610fed565b610fd2565b90508281526020810184848401111561105c5761105b610f5c565b5b61106784828561101e565b509392505050565b600082601f83011261108457611083610f57565b5b813561109484826020860161102d565b91505092915050565b6110a681610f23565b81146110b157600080fd5b50565b6000813590506110c38161109d565b92915050565b6000806000606084860312156110e2576110e1610e8e565b5b600084013567ffffffffffffffff811115611100576110ff610e93565b5b61110c8682870161106f565b935050602061111d868287016110b4565b925050604061112e868287016110b4565b9150509250925092565b60006020828403121561114e5761114d610e8e565b5b600061115c848285016110b4565b91505092915050565b600081519050919050565b600082825260208201905092915050565b60005b8381101561119f578082015181840152602081019050611184565b838111156111ae576000848401525b50505050565b60006111bf82611165565b6111c98185611170565b93506111d9818560208601611181565b6111e281610f61565b840191505092915050565b60006111f882610e98565b9050919050565b611208816111ed565b82525050565b7f4e487b7100000000000000000000000000000000000000000000000000000000600052602160045260246000fd5b6004811061124e5761124d61120e565b5b50565b600081905061125f8261123d565b919050565b600061126f82611251565b9050919050565b61127f81611264565b82525050565b60006101008201905061129b600083018b610f2d565b81810360208301526112ad818a6111b4565b90506112bc6040830189610f2d565b6112c960608301886111ff565b6112d660808301876111ff565b6112e360a0830186610f2d565b6112f060c0830185610f2d565b6112fd60e0830184611276565b9998505050505050505050565b7f4e487b7100000000000000000000000000000000000000000000000000000000600052601160045260246000fd5b600061134482610f23565b91507fffffffffffffffffffffffffffffffffffffffffffffffffffffffffffffffff82036113765761137561130a565b5b600182019050919050565b600061138c82610f23565b915061139783610f23565b9250827fffffffffffffffffffffffffffffffffffffffffffffffffffffffffffffffff038211156113cc576113cb61130a565b5b828201905092915050565b60006080820190506113ec6000830187610f2d565b81810360208301526113fe81866111b4565b905061140d6040830185610f2d565b61141a6060830184610f2d565b95945050505050565b7f4e6f2066756e647320746f2077697468647261772e0000000000000000000000600082015250565b6000611459601583611170565b915061146482611423565b602082019050919050565b600060208201905081810360008301526114888161144c565b9050919050565b7f41756374696f6e20616c726561647920656e6465642e00000000000000000000600082015250565b60006114c5601683611170565b91506114d08261148f565b602082019050919050565b600060208201905081810360008301526114f4816114b8565b9050919050565b7f546865726520616c7265616479206973206120686967686572206269642e0000600082015250565b6000611531601e83611170565b915061153c826114fb565b602082019050919050565b6000602082019050818103600083015261156081611524565b9050919050565b7f426964206d757374206265206174206c6561737420746865207374617274207060008201527f726963652e000000000000000000000000000000000000000000000000000000602082015250565b60006115c3602583611170565b91506115ce82611567565b604082019050919050565b600060208201905081810360008301526115f2816115b6565b9050919050565b61160281610eb8565b82525050565b600060608201905061161d6000830186610f2d565b61162a60208301856115f9565b6116376040830184610f2d565b949350505050565b7f4f6e6c79207468652062757965722063616e2063616c6c20746869732066756e60008201527f6374696f6e2e0000000000000000000000000000000000000000000000000000602082015250565b600061169b602683611170565b91506116a68261163f565b604082019050919050565b600060208201905081810360008301526116ca8161168e565b9050919050565b7f5468652073746174652073686f756c64206265204177616974696e675265636560008201527f697665642e000000000000000000000000000000000000000000000000000000602082015250565b600061172d602583611170565b9150611738826116d1565b604082019050919050565b6000602082019050818103600083015261175c81611720565b9050919050565b7f41756374696f6e20686173206e6f7420656e646564207965742e000000000000600082015250565b6000611799601a83611170565b91506117a482611763565b602082019050919050565b600060208201905081810360008301526117c88161178c565b9050919050565b7f41756374696f6e20616c726561647920636f6d706c657465642e000000000000600082015250565b6000611805601a83611170565b9150611810826117cf565b602082019050919050565b60006020820190508181036000830152611834816117f8565b9050919050565b6000819050919050565b600061186061185b61185684610e98565b61183b565b610e98565b9050919050565b600061187282611845565b9050919050565b600061188482611867565b9050919050565b61189481611879565b82525050565b60006060820190506118af6000830186610f2d565b6118bc602083018561188b565b6118c96040830184610f2d565b949350505050565b7f4e487b7100000000000000000000000000000000000000000000000000000000600052602260045260246000fd5b6000600282049050600182168061191857607f821691505b60208210810361192b5761192a6118d1565b5b50919050565b7f4f6e6c79207468652073656c6c65722063616e2063616c6c207468697320667560008201527f6e6374696f6e2e00000000000000000000000000000000000000000000000000602082015250565b600061198d602783611170565b915061199882611931565b604082019050919050565b600060208201905081810360008301526119bc81611980565b9050919050565b7f5468652073746174652073686f756c64206265204177616974696e6744656c6960008201527f766572792e000000000000000000000000000000000000000000000000000000602082015250565b6000611a1f602583611170565b9150611a2a826119c3565b604082019050919050565b60006020820190508181036000830152611a4e81611a12565b905091905056fea26469706673582212202d886c4f4b7732847c902a857da3d623b3db9d7c46f857c59059d3721582043864736f6c634300080e0033",
  "immutableReferences": {},
  "source": "// SPDX-License-Identifier: MIT\npragma solidity >=0.4.22 <0.9.0;\n\ncontract Auction {\n    struct Item {\n        uint id;\n        string description;\n        uint startPrice;\n        address payable seller;\n        address payable highestBidder;\n        uint highestBid;\n        uint endTime;\n        AuctionState state;\n    }\n\n    enum AuctionState {\n        InProgress,\n        AwaitingDelivery,\n        AwaitingReceived,\n        Completed\n    }\n\n    uint public itemCount;\n    mapping(uint => Item) public items;\n    mapping(address => uint) public pendingReturns;\n\n    event AuctionCreated(\n        uint id,\n        string description,\n        uint startPrice,\n        uint endTime\n    );\n    event HighestBidIncreased(uint id, address bidder, uint amount);\n    event AuctionEnded(uint id, address winner, uint amount);\n    event ItemShipped(uint id);\n    event ItemReceived(uint id);\n\n    function createAuction(\n        string memory description,\n        uint startPrice,\n        uint duration\n    ) public {\n        itemCount++;\n        items[itemCount] = Item({\n            id: itemCount,\n            description: description,\n            startPrice: startPrice,\n            seller: payable(msg.sender),\n            highestBidder: payable(address(0)),\n            highestBid: 0,\n            endTime: block.timestamp + duration,\n            state: AuctionState.InProgress\n        });\n\n        emit AuctionCreated(\n            itemCount,\n            description,\n            startPrice,\n            items[itemCount].endTime\n        );\n    }\n\n    function bid(uint itemId) public payable {\n        Item storage item = items[itemId];\n        require(block.timestamp < item.endTime, \"Auction already ended.\");\n        require(msg.value > item.highestBid, \"There already is a higher bid.\");\n        require(\n            msg.value >= item.startPrice,\n            \"Bid must be at least the start price.\"\n        );\n\n        if (item.highestBidder != address(0)) {\n            pendingReturns[item.highestBidder] += item.highestBid;\n        }\n\n        item.highestBidder = payable(msg.sender);\n        item.highestBid = msg.value;\n\n        emit HighestBidIncreased(itemId, msg.sender, msg.value);\n    }\n\n    function withdraw() public {\n        uint amount = pendingReturns[msg.sender];\n        require(amount > 0, \"No funds to withdraw.\");\n\n        pendingReturns[msg.sender] = 0;\n\n        if (!payable(msg.sender).send(amount)) {\n            pendingReturns[msg.sender] = amount;\n        }\n    }\n\n    function endAuction(uint itemId) public {\n        Item storage item = items[itemId];\n        require(block.timestamp >= item.endTime, \"Auction has not ended yet.\");\n        require(\n            item.state == AuctionState.InProgress,\n            \"Auction already completed.\"\n        );\n\n        item.state = AuctionState.AwaitingDelivery;\n\n        emit AuctionEnded(itemId, item.highestBidder, item.highestBid);\n    }\n\n    function shipItem(uint itemId) public {\n        Item storage item = items[itemId];\n        require(\n            msg.sender == item.seller,\n            \"Only the seller can call this function.\"\n        );\n        require(\n            item.state == AuctionState.AwaitingDelivery,\n            \"The state should be AwaitingDelivery.\"\n        );\n        item.state = AuctionState.AwaitingReceived;\n\n        emit ItemShipped(itemId);\n    }\n\n    function receiveItem(uint itemId) public {\n        Item storage item = items[itemId];\n        require(\n            msg.sender == item.highestBidder,\n            \"Only the buyer can call this function.\"\n        );\n        require(\n            item.state == AuctionState.AwaitingReceived,\n            \"The state should be AwaitingReceived.\"\n        );\n\n        item.state = AuctionState.Completed;\n\n        payable(item.seller).transfer(item.highestBid);\n\n        emit ItemReceived(itemId);\n    }\n}\n",
  "sourcePath": "/home/gentle/projects/homeworks/blockchain/auction_system/server/contracts/Auction.sol",
  "compiler": {
    "name": "solc",
    "version": "0.8.14+commit.80d49f37.Emscripten.clang"
  },
  "schemaVersion": "3.4.16",
  "updatedAt": "2024-06-11T07:20:26.597Z",
  "networkType": "ethereum",
  "devdoc": {
    "kind": "dev",
    "methods": {},
    "version": 1
  },
  "userdoc": {
    "kind": "user",
    "methods": {},
    "version": 1
  }
}